S00F000064656661756C742E7372656330
S11300000C9434000C943E000C943E000C943E007E
S11300100C943E000C943E000C943E000C943E0064
S11300200C943E000C943E000C943E000C943E0054
S11300300C943E000C943E000C943E000C943E0044
S11300400C943E000C943E000C943E000C943E0034
S11300500C943E000C943E000C943E000C943E0024
S11300600C943E000C943E0011241FBECFEFD8E048
S1130070DEBFCDBF0E9440000C9450000C940000E1
S1130080249A2C9A83E294EF0197F1F700C00000C0
S11300902C9883E294EF0197F1F700C00000F1CFB0
S10700A0F894FFCFFE
S9030000FC
