:100000000C9434000C943E000C943E000C943E0082
:100010000C943E000C943E000C943E000C943E0068
:100020000C943E000C943E000C943E000C943E0058
:100030000C943E000C943E000C943E000C943E0048
:100040000C943E000C943E000C943E000C943E0038
:100050000C943E000C943E000C943E000C943E0028
:100060000C943E000C943E0011241FBECFEFD8E04C
:10007000DEBFCDBF0E9440000C945F000C940000D6
:10008000CF93DF9300D0CDB7DEB7209A1A821982C2
:1000900034E721E005C015BC25BB85B1822785B9B1
:1000A00036BD14BC85B5826085BDA899F4CF898121
:1000B0009A8101969A838983A89BF9CFECCFF89413
:0200C000FFCF70
:00000001FF
