S00F000064656661756C742E7372656330
S11300000C9434000C943E000C943E000C943E007E
S11300100C943E000C943E000C943E000C943E0064
S11300200C943E000C943E000C943E000C943E0054
S11300300C943E000C943E000C943E000C943E0044
S11300400C943E000C943E000C943E000C943E0034
S11300500C943E000C943E000C943E000C943E0024
S11300600C943E000C943E0011241FBECFEFD8E048
S1130070DEBFCDBF0E9440000C9451000C940000E0
S1130080209A3DE892E021E016BC37BD94BD95BDB1
S113009085B38823E9F385B1822785B915BC95BB5F
S10900A0F3CFF894FFCF3A
S9030000FC
